:020000020000FC
:02000000FFC03F
:100200000FEF00933D000FE300933E0012D026D085
:1002100000910806009344060091A80602FF2AD028
:100220000091A80603FF30D00091880600FF36D069
:10023000EFCF0F930FEF0093020600934506009354
:10024000410600E7009365060093610603E700930B
:10025000010907E000936E060F9108950F930FEFC9
:100260000093260900E00093270903E000930009AA
:100270000F9108950F930091080600932809002715
:10028000009329090F9108950F9300910806009398
:100290002A09002700932B090F9108950F930091CD
:1002A000080600932C09002700932D090F9108954B
:00000001FF
