:020000020000FC
:02000000FFC03F
:0201A00072C02B
:0200380038C1CD
:100200000FEF00933D000FE300933E000AD016D09D
:1002100028D01DD011271093460620936706FBCFE8
:10022000FFCF0F930FEF009345060093410620E1A7
:1002300020936506209361060F9108950F930CE4B7
:10024000009326080DE1009327080F9108950F935E
:1002500000E00093060801E00093A20078940F915B
:1002600008950F9304E00093AA060093A20601E00C
:100270000093A90602E00093B20601E00093A200F9
:1002800078940F9108950F9300913F000F9300E031
:100290000093A90604E00093000801E0009306081B
:1002A0000F9100933F000F9118950F9300913F001D
:1002B0000F9300E00093000800E000930608002779
:1002C000009320080093210801E000930C0800919E
:1002D000A80602FF1395212F20952093450601E0E3
:0E02E0000093A9060F9100933F000F9118950F
:00000001FF
