:020000020000FC
:02000000FEC040
:1001FE000FEF00933D000FE300933E004BD058D01D
:10020E00A0E0B0E2C0E0D0E20091A80602FF23C059
:10021E0010910806109344060091A80603FDF4CF32
:10022E002093000800910C0800FFFCCF00E0009323
:10023E00000801E000930C080027009320080093AB
:10024E0021080091A80603FDDFCF0091A80603FF49
:10025E00FCCF1D93D9CFC0E0D0E20091880600FFFD
:10026E00D3CFAC17BD07B9F3399130934406209321
:10027E00000800910C0800FFFCCF00E0009300087E
:10028E0001E000930C08002700932008009321083A
:10029E00E4CFFFCF0F930FEF009345060093410677
:1002AE000027009300060CE00093A2060F9108951C
:1002BE000F930CE4009326080CE40093270804E047
:0602CE00202F0F9108959E
:00000001FF
