S00C00004C6162372E73726563D2
S11300000C94FE000C9416010C9416010C94160129
S11300100C9416010C9416010C9416010C94160100
S11300200C9416010C9416010C9416010C941601F0
S11300300C9416010C9416010C9416010C941601E0
S11300400C9416010C9416010C9416010C941601D0
S11300500C9416010C9416010C9416010C941601C0
S11300600C9416010C9416010C9416010C941601B0
S11300700C9416010C9416010C9416010C941601A0
S11300800C9416010C9416010C9416010C94160190
S11300900C9416010C9416010C9416010C94160180
S11300A00C9416010C9416010C9416010C94160170
S11300B00C9416010C9416010C9416010C94160160
S11300C00C9416010C9416010C9416010C94160150
S11300D00C9416010C9416010C9416010C94160140
S11300E00C9416010C9416010C9416010C94160130
S11300F00C9416010C9416010C9416010C94160120
S11301000C9416010C9416010C9416010C9416010F
S11301100C9416010C9416010C9416010C947E0197
S11301200C9416010C9416010C9416010C941601EF
S11301300C9416010C9416010C9416010C941601DF
S11301400C9416010C9416010C9416010C941601CF
S11301500C9416010C9416010C9416010C941601BF
S11301600C949C010C9416010C9416010C94160129
S11301700C9416010C9416010C9416010C9416019F
S11301800C9416010C9416010C9416010C9416018F
S11301900C9416010C9416010C9416010C9416017F
S11301A00C9416010C9416010C9416010C9416016F
S11301B00C9416010C9416010C9416010C9416015F
S11301C00C9416010C9416010C9416010C9416014F
S11301D00C9416010C9416010C9416010C9416013F
S11301E00C9416010C9416010C9416010C9416012F
S11301F00C9416010C9416010C94160111241FBEC4
S1130200CFEFCDBFDFE3DEBF00E00CBF18BE19BEE9
S11302101ABE1BBE20E2A0E0B0E201C01D92A630CF
S1130220B207E1F70E9451010C94C0010C94000044
S113023088EB9BE0809326089093270883E08093C3
S1130240000880EC809380010895E0E0F2E080E112
S1130250818380E3828382E0848383E080A38AE0D5
S113026081A381E082A3838380830895E0E6F6E09E
S113027088E08583818384E08283E0EAF9E089E091
S1130280868380E9878383E3858388E1848380E1AF
S1130290838308959091A10995FFFCCF8093A009D1
S11302A008950E9425010E9418010E94360181E0F0
S11302B08093A20080E88FBF80910120882319F0E9
S11302C08AE08093210280910020882319F088E23B
S11302D08093210280910220882371F3809104206D
S11302E090910520892F0E944A01809104209091C9
S11302F005200E944A0110920220DECF1F920F9225
S11303000FB60F92112408B60F9218BE8F939F93C5
S113031080912402909125028093042090930520DB
S113032081E0809302209F918F910F9008BE0F90DF
S11303300FBE0F901F9018951F920F920FB60F9239
S1130340112408B60F9218BE8F938091A009809350
S1130350032080910320823421F481E080930120E2
S113036007C080910320863419F481E08093002033
S11303708F910F9008BE0F900FBE0F901F9018958D
S1070380F894FFCF1B
S9030000FC
