:100000000C94FE000C941C010C941C010C941C011B
:100010000C941C010C941C010C941C010C941C01EC
:100020000C941C010C941C010C941C010C941C01DC
:100030000C941C010C941C010C941C010C941C01CC
:100040000C941C010C941C010C941C010C941C01BC
:100050000C941C010C941C010C941C010C941C01AC
:100060000C941C010C941C010C941C010C941C019C
:100070000C941C010C941C010C941C010C941C018C
:100080000C941C010C941C010C941C010C941C017C
:100090000C941C010C941C010C941C010C941C016C
:1000A0000C941C010C941C010C941C010C941C015C
:1000B0000C941C010C941C010C941C010C941C014C
:1000C0000C941C010C941C010C941C010C941C013C
:1000D0000C941C010C941C010C941C010C941C012C
:1000E0000C941C010C941C010C941C010C941C011C
:1000F0000C941C010C941C010C941C010C941C010C
:100100000C941C010C941C010C941C010C941C01FB
:100110000C941C010C941C010C941C010C941C01EB
:100120000C941C010C941C010C941C010C941C01DB
:100130000C941C010C941C010C941C010C941C01CB
:100140000C941C010C941C010C941C010C941C01BB
:100150000C941C010C941C010C941C010C941C01AB
:100160000C941C010C941C010C941C010C941C019B
:100170000C941C010C941C010C941C010C941C018B
:100180000C941C010C941C010C941C010C941C017B
:100190000C941C010C941C010C941C010C941C016B
:1001A0000C941C010C941C010C941C010C941C015B
:1001B0000C941C010C941C010C941C010C941C014B
:1001C0000C941C010C941C010C941C010C941C013B
:1001D0000C941C010C941C010C941C010C941C012B
:1001E0000C941C010C941C010C941C010C941C011B
:1001F0000C941C010C941C010C941C0111241FBEB6
:10020000CFEFCDBFDFE3DEBF00E00CBF18BE19BEED
:100210001ABE1BBE10E2A0E0B0E2E2E0F3E000E0B4
:100220000BBF02C007900D92A031B107D9F71BBEDA
:100230000E941E010C947F010C940000CF93DF9369
:10024000CDB7DEB76597CDBFDEBF80E1E0E0F0E27D
:10025000DE01159601900D928A95E1F7CE01059683
:1002600089839A831D8ACE0145968B839C833FC0E8
:1002700089819A81FC018081882F90E08072992782
:10028000892BC9F089819A81FC018081882F90E0B7
:10029000880F991F863491052CF189819A81FC0180
:1002A00020818B819C81FC0120838B819C81019624
:1002B0008B839C8317C089819A81FC018081882F60
:1002C00090E003968E3491056CF489819A81FC014B
:1002D00020818B819C81FC0120838B819C810196F4
:1002E0008B839C8389819A81019689839A838981F2
:1002F0009A81FC018081882309F0BACFB8CFF894A5
:02030000FFCF2D
:10030200C922295B912A555823554A2155201E009E
:00000001FF
