:020000020000FC
:1040000001000100010001000100010001000100A8
:104010000100010001000100010001000100010098
:104020000100010001000100010001000100010088
:104030000100010001000100010001000100010078
:02000000FFC03F
:100200000FEF00933D000FE300933E000CD011D0A0
:10021000E0E0F0E2C0E0D0E600E000933A000881C0
:100220000083FDCFFFCF0F9301E0009302060F91F3
:1002300008950F9303E50093E50604E00093E606B6
:1002400007E50093E1060FEF0093210701E000931B
:10025000400405E10093580400E600935A0400E0CE
:1002600000935B040DE100935C0400E800935E04DE
:1002700000E000935F040F9108950F9305EF009342
:10028000260806E00093270805E000930008009187
:100290000C0800FFFCCF00E00093060801E000938B
:1002A0000C08002700932008009321080F9108955F
:00000001FF
