:100000000C94FE000C941C010C941C010C941C011B
:100010000C941C010C941C010C941C010C941C01EC
:100020000C941C010C941C010C941C010C941C01DC
:100030000C941C010C941C010C941C010C941C01CC
:100040000C941C010C941C010C941C010C941C01BC
:100050000C941C010C941C010C941C010C941C01AC
:100060000C941C010C941C010C941C010C941C019C
:100070000C941C010C941C010C941C010C941C018C
:100080000C941C010C941C010C941C010C941C017C
:100090000C941C010C941C010C941C010C941C016C
:1000A0000C941C010C941C010C941C010C941C015C
:1000B0000C941C010C941C010C941C010C941C014C
:1000C0000C941C010C941C010C941C010C941C013C
:1000D0000C941C010C941C010C941C010C941C012C
:1000E0000C941C010C941C010C941C010C941C011C
:1000F0000C941C010C941C010C941C010C941C010C
:100100000C941C010C941C010C941C010C941C01FB
:100110000C941C010C941C010C941C010C941C01EB
:100120000C941C010C941C010C941C010C941C01DB
:100130000C941C010C941C010C941C010C941C01CB
:100140000C941C010C941C010C941C010C941C01BB
:100150000C941C010C941C010C941C010C941C01AB
:100160000C941C010C941C010C941C010C941C019B
:100170000C941C010C941C010C941C010C941C018B
:100180000C941C010C941C010C941C010C941C017B
:100190000C941C010C941C010C941C010C941C016B
:1001A0000C941C010C941C010C941C010C941C015B
:1001B0000C941C010C941C010C941C010C941C014B
:1001C0000C941C010C941C010C941C010C941C013B
:1001D0000C941C010C941C010C941C010C941C012B
:1001E0000C941C010C941C010C941C010C941C011B
:1001F0000C941C010C941C010C941C0111241FBEB6
:10020000CFEFCDBFDFE3DEBF00E00CBF18BE19BEED
:100210001ABE1BBE10E2A0E0B0E2E2EFF2E000E0A6
:100220000BBF02C007900D92A031B107D9F71BBEDA
:100230000E941E010C9477010C940000CF93DF9371
:10024000CDB7DEB76497CDBFDEBF80E1E0E0F0E27E
:10025000DE01139601900D928A95E1F7CE01039687
:100260008B8B9C8B80E097E389839A8339C08B8941
:100270009C89FC018081882F90E080729927892BCE
:10028000C1F08B899C89FC018081882F90E0880FC8
:10029000991F86349105FCF0CE014396282F898161
:1002A0009A81FC01208389819A81019689839A83AE
:1002B00012C0CE01439606968E34910560F4CE01AD
:1002C0004396282F89819A81FC01208389819A8114
:1002D000019689839A838B899C8901968B8B9C8B51
:1002E0008B899C89FC018081882309F6BFCFF89413
:0202F000FFCF3E
:1002F200C922295B912A555823554A2155201E00AF
:00000001FF
