:100000000C94FE000C9416010C9466010C941601DD
:100010000C9416010C9416010C9416010C94160104
:100020000C9416010C9416010C9416010C941601F4
:100030000C9416010C9416010C9416010C941601E4
:100040000C9416010C9416010C9416010C941601D4
:100050000C9416010C9416010C9416010C941601C4
:100060000C9416010C9416010C9416010C941601B4
:100070000C9416010C9416010C9416010C941601A4
:100080000C9416010C9416010C9416010C94160194
:100090000C9416010C9416010C9416010C94160184
:1000A0000C9416010C9416010C9416010C94160174
:1000B0000C9416010C9416010C9416010C94160164
:1000C0000C9416010C9416010C9416010C94160154
:1000D0000C9416010C9416010C9416010C94160144
:1000E0000C9416010C9416010C9416010C94160134
:1000F0000C9416010C9416010C9416010C94160124
:100100000C9416010C9416010C9416010C94160113
:100110000C9416010C9416010C9416010C94160103
:100120000C9416010C9416010C9416010C941601F3
:100130000C9416010C9416010C9416010C941601E3
:100140000C9416010C9416010C9416010C941601D3
:100150000C9416010C9416010C9416010C941601C3
:100160000C9416010C9416010C9416010C941601B3
:100170000C9416010C9416010C9416010C941601A3
:100180000C9416010C9416010C9416010C94160193
:100190000C9416010C9416010C9416010C94160183
:1001A0000C9416010C9416010C9416010C94160173
:1001B0000C9416010C9416010C9416010C94160163
:1001C0000C9416010C9416010C9416010C94160153
:1001D0000C9416010C9416010C9416010C94160143
:1001E0000C9416010C9416010C9416010C94160133
:1001F0000C9416010C9416010C94160111241FBEC8
:10020000CFEFCDBFDFE3DEBF00E00CBF18BE19BEED
:100210001ABE1BBE20E2A0E0B0E201C01D92A730D2
:10022000B207E1F70E941B010C9401020C9400003C
:100230000E94FA0108950E94C9010E94A0010E9433
:10024000E801809100208823E1F388E20E948F0179
:10025000809304208091042090E00E94180189E29C
:100260000E948F01809301208091012090E00E94E4
:1002700018018AE20E948F0180930320809103205D
:1002800090E00E9418018BE20E948F01809306206B
:100290008091062090E00E9418018CE20E948F015C
:1002A000809302208091022090E00E9418018DE24C
:1002B0000E948F01809305208091052090E00E948C
:1002C00018011092002080E88FBFBBCF1F920F92C1
:1002D0000FB60F92112408B60F9218BE8F931FBE4F
:1002E00081E0809300208F910F9008BE0F900FBE89
:1002F0000F901F9018950F931F93CF93DF93062FA6
:10030000C0EAD6E010E11E830E94D701802F0E9430
:10031000D7011D83DF91CF911F910F9108951F93F6
:10032000CF93DF93C0EAD6E010E11E8380680E947D
:10033000D7010E94DE011D83DF91CF911F910895A7
:1003400080E480934A068093420681E080934906C8
:1003500092E0909352068093A20080E88FBF89E2DA
:100360000E948F018BE20E948F018DE20E948F011B
:1003700061E082E10E947B0160EE88E10E947B01E6
:1003800060E580E10E947B0161E08DE00E947B01DD
:100390000895E0EAF6E080E1858380E8858380EBDC
:1003A000818380E482838DE58093C00B08958093E0
:1003B000C30B8091C20B8823E4F7089587E38093F1
:1003C000C30B8091C20B8823E4F78091C30B08957F
:1003D000E0E6F6E088E08583818384E08283E0EADA
:1003E000F9E085E0868380EA878383E0858388E17E
:1003F000848308959091A10995FFFCCF8093A00973
:060400000895F894FFCFFF
:00000001FF
