:100000000C94FE000C941C010C941C010C941C011B
:100010000C941C010C941C010C941C010C941C01EC
:100020000C941C010C941C010C941C010C941C01DC
:100030000C941C010C941C010C941C010C941C01CC
:100040000C941C010C941C010C941C010C941C01BC
:100050000C941C010C941C010C941C010C941C01AC
:100060000C941C010C941C010C941C010C941C019C
:100070000C941C010C941C010C941C010C941C018C
:100080000C941C010C941C010C941C010C941C017C
:100090000C941C010C941C010C941C010C941C016C
:1000A0000C941C010C941C010C941C010C941C015C
:1000B0000C941C010C941C010C941C010C941C014C
:1000C0000C941C010C941C010C941C010C941C013C
:1000D0000C941C010C941C010C941C010C941C012C
:1000E0000C941C010C941C010C941C010C941C011C
:1000F0000C941C010C941C010C941C010C941C010C
:100100000C941C010C941C010C941C010C941C01FB
:100110000C941C010C941C010C941C010C941C01EB
:100120000C941C010C941C010C941C010C941C01DB
:100130000C941C010C941C010C941C010C941C01CB
:100140000C941C010C941C010C941C010C941C01BB
:100150000C941C010C941C010C941C010C941C01AB
:100160000C941C010C941C010C941C010C941C019B
:100170000C941C010C941C010C941C010C941C018B
:100180000C941C010C941C010C941C010C941C017B
:100190000C941C010C941C010C941C010C941C016B
:1001A0000C941C010C941C010C941C010C941C015B
:1001B0000C941C010C941C010C941C010C941C014B
:1001C0000C941C010C941C010C941C010C941C013B
:1001D0000C941C010C941C010C941C010C941C012B
:1001E0000C941C010C941C010C941C010C941C011B
:1001F0000C941C010C941C010C941C0111241FBEB6
:10020000CFEFCDBFDFE3DEBF00E00CBF18BE19BEED
:100210001ABE1BBE12E2A0E0B0E2ECECF3E000E09C
:100220000BBF02C007900D92A030B107D9F71BBEDB
:100230000E9434010C94E4010C9400008F9382E03E
:10024000809350008091510081FFFCCF88ED809316
:10025000340081E08093400088ED8093340088274B
:10026000809341008F910895CF93DF93CDB7DEB790
:100270000E941E010E944A010E9483010E946501A2
:1002800080E091E020E031E0F90120892068FC0164
:10029000208BF6CFCF93DF93CDB7DEB780E093E02E
:1002A00021E0FC01218380E093E028E1FC0122832E
:1002B00080E093E025E0FC01208380E093E0FC01F6
:1002C00013820000DF91CF910895CF93DF93CDB7D4
:1002D000DEB780E098E02FE030E0FC0126A337A3F2
:1002E00080E098E0FC0110A211A280E098E023E0F9
:1002F000FC01208380E891E020ECFC0120830000D9
:10030000DF91CF910895CF93DF93CDB7DEB780E033
:1003100091E020E031E0F90120812064FC0120839C
:1003200080E091E025E0FC01208B80E091E029E570
:10033000FC01228B80E091E021E0FC01238B80E036
:1003400091E020E032E0FC01248B358B80E091E0ED
:1003500020E030E2FC01208F80E091E020E030E2FC
:10036000232F3327FC01218F20E031E080E090E251
:10037000CC01A0E0B0E0CD01AA27BB27F901828F14
:1003800080E091E028E1FC01248F80E091E023E00F
:10039000FC01258F80E091E0FC01168E80E091E069
:1003A00020E031E0F90120892068FC01208B80E009
:1003B00091E020E031E0F90120812068FC012083F8
:0C03C0000000DF91CF910895F894FFCF6A
:1003CC000008320864089608C808FA082C095E0967
:1003DC008F09C009F109220A520A820AB10AE00AFD
:1003EC000F0B3D0B6B0B980BC50BF10B1C0C470C3F
:1003FC00710C9A0CC30CEB0C120D390D5F0D830DA7
:10040C00A70DCA0DED0D0E0E2E0E4E0E6C0E8A0E95
:10041C00A60EC10EDC0EF50E0D0F240F3A0F4F0F6A
:10042C00630F760F870F980FA70FB50FC20FCD0F65
:10043C00D80FE10FE90FF00FF50FF90FFD0FFE0FBD
:10044C00FF0FFE0FFD0FF90FF50FF00FE90FE10F86
:10045C00D80FCD0FC20FB50FA70F980F870F760FC0
:10046C00630F4F0F3A0F240F0D0FF50EDC0EC10E5C
:10047C00A60E8A0E6C0E4E0E2E0E0E0EED0DCA0D25
:10048C00A70D830D5F0D390D120DEB0CC30C9A0CDF
:10049C00710C470C1C0CF10BC50B980B6B0B3D0B2B
:1004AC000F0BE00AB10A820A520A220AF109C009AA
:1004BC008F095E092C09FA08C808960864083208E6
:1004CC000008CD079B07690737070507D306A10668
:1004DC0070063F060E06DD05AD057D054E051F05B4
:1004EC00F004C204940467043A040E04E303B80352
:1004FC008E0365033C031403ED02C602A0027C02CA
:10050C00580235021202F101D101B10193017501BA
:10051C0059013E0123010A01F200DB00C500B000C5
:10052C009C0089007800670058004A003D003200AA
:10053C0027001E0016000F000A0006000200010032
:10054C0000000100020006000A000F0016001E0049
:10055C00270032003D004A005800670078008900EF
:10056C009C00B000C500DB00F2000A0123013E0133
:10057C00590175019301B101D101F101120235024A
:10058C0058027C02A002C602ED0214033C03650370
:10059C008E03B803E3030E043A0467049404C20404
:1005AC00F0041F054E057D05AD05DD050E063F0665
:1005BC007006A106D3060507370769079B07CD0709
:00000001FF
