:100000000C94FE000C9416010C94C1020C94160181
:100010000C9416010C9416010C9416010C94160104
:100020000C9416010C9416010C9416010C941601F4
:100030000C9416010C9416010C94D6020C94160123
:100040000C9416010C9416010C9416010C941601D4
:100050000C9416010C9416010C9416010C941601C4
:100060000C9416010C9416010C9416010C941601B4
:100070000C9416010C9416010C9416010C941601A4
:100080000C9416010C9416010C9416010C94160194
:100090000C9416010C9416010C9416010C94160184
:1000A0000C9416010C9416010C9416010C94160174
:1000B0000C9416010C9416010C9416010C94160164
:1000C0000C9416010C9416010C9416010C94160154
:1000D0000C9416010C9416010C9416010C94160144
:1000E0000C9416010C9416010C9416010C94160134
:1000F0000C9416010C9416010C9416010C94160124
:100100000C9416010C9416010C9416010C94160113
:100110000C9416010C9416010C9416010C94160103
:100120000C9416010C9416010C9416010C941601F3
:100130000C9416010C9416010C9416010C941601E3
:100140000C9416010C9416010C9416010C941601D3
:100150000C9416010C9416010C9416010C941601C3
:100160000C9416010C9416010C9416010C941601B3
:100170000C9416010C9416010C9416010C941601A3
:100180000C9416010C9416010C9416010C94160193
:100190000C9416010C9416010C9416010C94160183
:1001A0000C9416010C9416010C9416010C94160173
:1001B0000C9416010C9416010C9416010C94160163
:1001C0000C9416010C9416010C9416010C94160153
:1001D0000C9416010C9416010C9416010C94160143
:1001E0000C9416010C9416010C9416010C94160133
:1001F0000C9416010C9416010C94160111241FBEC8
:10020000CFEFCDBFDFE3DEBF00E00CBF18BE19BEED
:100210001ABE1BBE20E2A0E0B0E201C01D92AD30CC
:10022000B207E1F70E947E010C9422030C940000B7
:100230000F931F93CF93DF93062FC0EAD6E010E110
:100240001E830E94F802802F0E94F8021D83DF9116
:10025000CF911F910F9108951F93CF93DF93C0EA21
:10026000D6E010E11E8380680E94F8020E94FF021F
:100270001D83DF91CF911F91089580E480934A06FA
:100280008093420681E08093490692E09093520663
:100290008093A20080E88FBF89E20E942C018BE24C
:1002A0000E942C018DE20E942C0161E082E10E94FB
:1002B000180160EE88E10E94180160E580E10E946B
:1002C000180161E08DE00E94180108950E941B034F
:1002D0000895E0E0F3E0118288E1828385E0808385
:1002E000089588EA92ED8093260890932708E0E02D
:1002F000F8E010A211A283E0808308950E94EA0230
:100300000E943D010E9409030E9469010E9471013F
:1003100081E08093A20090E89FBFE0E2F7E0858350
:100320008183809100208823E1F388E20E942C01E0
:10033000809308208091082090E00E94660189E265
:100340000E942C01809303208091032090E00E9462
:1003500066018AE20E942C01809307208091072089
:1003600090E00E9466018BE20E942C0180930C2099
:1003700080910C2090E00E9466018CE20E942C018A
:10038000809304208091042090E00E9466018DE219
:100390000E942C0180930B209091032080910820D3
:1003A000892B90E0809301209093022090910C2063
:1003B00080910720892B90E08093092090930A2058
:1003C00090910B2080910420892B90E08093052050
:1003D0009093062040910520509106202091012005
:1003E0003091022091E0452B09F490E081E0232B2D
:1003F00009F080E089232091092030910A2091E0C2
:10040000232B09F090E0882309F443C0992309F4D1
:1004100040C086E490E00E9466018CE690E00E9475
:10042000660181E690E00E94660184E790E00E9408
:10043000660180E290E00E9466018FE690E00E94F3
:1004400066018EE690E00E94660180E290E00E94E4
:10045000660184E790E00E94660181E690E00E94D8
:10046000660182E690E00E9466018CE690E00E94C0
:10047000660185E690E00E9466018091250380FF79
:10048000FCCF8091012090910220809318039093DB
:1004900019034091012050910220209101203091B8
:1004A000022091E0452B09F490E081E0232B09F034
:1004B00080E089232091092030910A2091E0232BAC
:1004C00009F090E0882309F44BC0992309F448C04F
:1004D0008FE490E00E9466018DE490E00E94660146
:1004E00082E490E00E94660180E290E00E94660152
:1004F00080E790E00E94660189E690E00E94660134
:100500008EE690E00E94660183E790E00E9466011B
:1005100080E290E00E9466018FE690E00E94660112
:100520008EE690E00E94660180E290E00E94660103
:1005300084E790E00E9466018FE690E00E946601E9
:1005400080E790E00E9466018091250380FFFCCF48
:100550008091092090910A208093180390931903A9
:100560008091092090910A20809101209091022091
:1005700080910520909106201092002080E88FBF86
:10058000D0CE1F920F920FB60F92112408B60F9281
:1005900018BE8F931FBE81E0809300208F910F9033
:1005A00008BE0F900FBE0F901F9018951F920F92CC
:1005B0000FB60F92112408B60F9218BE8F9381E0E8
:1005C000809327078F910F9008BE0F900FBE0F905A
:1005D0001F901895E0EAF6E080E1858380E8858346
:1005E00080EB818380E482838DE58093C00B089546
:1005F0008093C30B8091C20B8823E4F7089587E3AF
:100600008093C30B8091C20B8823E4F78091C30BC6
:100610000895E0E6F6E088E08583818384E08283C4
:10062000E0EAF9E087E0868380ED878383E08583D5
:1006300088E1848308959091A10995FFFCCF809370
:08064000A0090895F894FFCF12
:00000001FF
